:1000000012C021C020C01FC01EC01DC01CC01BC00C
:100010001AC019C018C017C016C015C014C013C02C
:1000200012C011C010C011241FBECFE5D4E0DEBF46
:10003000CDBF10E0A0E6B0E001C01D92A336B1072D
:10004000E1F70FD175C1DCCF5F9BFECF8CB1089576
:1000500020E030E000000000000000000000000090
:1000600000000000000000002F5F3F4F8217930741
:1000700088F70895CF93DF93EC0107C08CB95E9B9E
:10008000FECF219688EE93E0E3DF88818823B1F7E5
:10009000DF91CF9108958CB95E9BFECF88EE93E0FF
:1000A000D7DF0895EF92FF920F931F93182F64E606
:1000B0000CD1482F282F30E08CE99FEF289F70014A
:1000C000299FF00C389FF00C1124C701810F911D5E
:1000D0006AE070E006D1062F842F805DDCDF802F80
:1000E000805DD9DF105D1E0D86EF9FEF089F002D0C
:1000F0001124802F810FCFDF1F910F91FF90EF9080
:1001000008951BB888E18AB986E880BD10BC8DE4EB
:1001100089B984E690E09CDF08952091600090E02A
:1001200002C09F5F2BE09817E0F32093600090934C
:1001300061000895C59888ECF0DFC59A88ECEDDF82
:10014000C59808951F93182F88B38F7C88BB812F83
:1001500082958F7088BBEEDF1F7018BBEBDF1F919D
:1001600008951F93182F80E188BB18BA812F8295BC
:100170008F70806188BBDEDF1F70106118BBDADF13
:100180001F910895CF93DF93EC0102C0EADF21961F
:1001900088818823D9F7DF91CF910895EF92FF925C
:1001A0000F931F93182F64E690D0482F282F30E02C
:1001B0008CE99FEF289F7001299FF00C389FF00C6D
:1001C0001124C701810F911D6AE070E08AD0062FCB
:1001D000842F805DC6DF802F805DC3DF105D1E0D24
:1001E00086EF9FEF089F002D1124802F810FB9DF2C
:1001F0001F910F91FF90EF900895882321F4862F8F
:100200008058A0DF0895813019F4862F80549ADF3A
:1002100008950AC020E030E000002F5F3F4F4CE01F
:100220002C3C3407C9F701970097A1F7089584E1A2
:1002300090E0EFDF88B3809362008FE387BB8FE0AD
:1002400090E0E7DF82E088BB81E07CDF82E07ADF5C
:1002500080E878DF84E190E0DCDF089581E072DF00
:100260000895CF92DF92EF92FF920F931F93CF9357
:10027000DF9347DFDCDF80EF81BB20E3E22E25E761
:10028000F22E90E9C92E80E6D82E00EA5F9BFECFC1
:100290001CB1C12FD0E0C7010197F1F712BA81E07C
:1002A00060E0ABDF812F7ADFC636D10511F402BBE7
:1002B000EDCFCC36D10511F4D2BAE8CFC237D10593
:1002C00011F4C2BAE3CF12BAE1CF991B79E004C0AE
:1002D000991F961708F0961B881F7A95C9F7809585
:1002E000089597FB092E07260AD077FD04D00CD07D
:1002F00006D000201AF4709561957F4F0895F6F7A7
:10030000909581959F4F0895AA1BBB1B51E107C093
:10031000AA1FBB1FA617B70710F0A61BB70B881F95
:10032000991F5A95A9F780959095BC01CD01089524
:04033000F894FFCF6F
:00000001FF
